{
  "contractName": "patientManagement",
  "abi": [
    {
      "inputs": [],
      "stateMutability": "nonpayable",
      "type": "constructor"
    },
    {
      "inputs": [
        {
          "internalType": "uint256",
          "name": "",
          "type": "uint256"
        }
      ],
      "name": "adminAddresses",
      "outputs": [
        {
          "internalType": "address",
          "name": "",
          "type": "address"
        }
      ],
      "stateMutability": "view",
      "type": "function",
      "constant": true
    },
    {
      "inputs": [
        {
          "internalType": "uint256",
          "name": "",
          "type": "uint256"
        },
        {
          "internalType": "uint256",
          "name": "",
          "type": "uint256"
        }
      ],
      "name": "appointmentSlots",
      "outputs": [
        {
          "internalType": "uint256",
          "name": "startTimestamp",
          "type": "uint256"
        },
        {
          "internalType": "uint256",
          "name": "endTimestamp",
          "type": "uint256"
        },
        {
          "internalType": "bool",
          "name": "isBooked",
          "type": "bool"
        },
        {
          "internalType": "uint256",
          "name": "patientid",
          "type": "uint256"
        }
      ],
      "stateMutability": "view",
      "type": "function",
      "constant": true
    },
    {
      "inputs": [
        {
          "internalType": "uint256",
          "name": "",
          "type": "uint256"
        }
      ],
      "name": "doctorAddresses",
      "outputs": [
        {
          "internalType": "address",
          "name": "",
          "type": "address"
        }
      ],
      "stateMutability": "view",
      "type": "function",
      "constant": true
    },
    {
      "inputs": [
        {
          "internalType": "uint256",
          "name": "",
          "type": "uint256"
        },
        {
          "internalType": "uint256",
          "name": "",
          "type": "uint256"
        }
      ],
      "name": "doctorAppointments",
      "outputs": [
        {
          "internalType": "uint256",
          "name": "doctorid",
          "type": "uint256"
        },
        {
          "internalType": "uint256",
          "name": "patientid",
          "type": "uint256"
        },
        {
          "internalType": "uint256",
          "name": "timestamp",
          "type": "uint256"
        },
        {
          "internalType": "uint256",
          "name": "charge",
          "type": "uint256"
        }
      ],
      "stateMutability": "view",
      "type": "function",
      "constant": true
    },
    {
      "inputs": [
        {
          "internalType": "uint256",
          "name": "",
          "type": "uint256"
        }
      ],
      "name": "isAdmin",
      "outputs": [
        {
          "internalType": "bool",
          "name": "",
          "type": "bool"
        }
      ],
      "stateMutability": "view",
      "type": "function",
      "constant": true
    },
    {
      "inputs": [
        {
          "internalType": "uint256",
          "name": "",
          "type": "uint256"
        }
      ],
      "name": "isDoctor",
      "outputs": [
        {
          "internalType": "bool",
          "name": "",
          "type": "bool"
        }
      ],
      "stateMutability": "view",
      "type": "function",
      "constant": true
    },
    {
      "inputs": [
        {
          "internalType": "uint256",
          "name": "",
          "type": "uint256"
        }
      ],
      "name": "patients",
      "outputs": [
        {
          "internalType": "uint256",
          "name": "id",
          "type": "uint256"
        },
        {
          "internalType": "address",
          "name": "userAddress",
          "type": "address"
        },
        {
          "internalType": "string",
          "name": "symptomsDetails",
          "type": "string"
        },
        {
          "internalType": "enum patientManagement.VaccineStatus",
          "name": "vaccineStatus",
          "type": "uint8"
        },
        {
          "internalType": "bool",
          "name": "isDead",
          "type": "bool"
        }
      ],
      "stateMutability": "view",
      "type": "function",
      "constant": true
    },
    {
      "inputs": [
        {
          "internalType": "uint256",
          "name": "",
          "type": "uint256"
        }
      ],
      "name": "transactions",
      "outputs": [
        {
          "internalType": "uint256",
          "name": "doctorid",
          "type": "uint256"
        },
        {
          "internalType": "uint256",
          "name": "patientid",
          "type": "uint256"
        },
        {
          "internalType": "uint256",
          "name": "timestamp",
          "type": "uint256"
        }
      ],
      "stateMutability": "view",
      "type": "function",
      "constant": true
    },
    {
      "inputs": [],
      "name": "userCount",
      "outputs": [
        {
          "internalType": "uint256",
          "name": "",
          "type": "uint256"
        }
      ],
      "stateMutability": "view",
      "type": "function",
      "constant": true
    },
    {
      "inputs": [
        {
          "internalType": "address",
          "name": "",
          "type": "address"
        }
      ],
      "name": "users",
      "outputs": [
        {
          "internalType": "uint256",
          "name": "id",
          "type": "uint256"
        },
        {
          "internalType": "address",
          "name": "userAddress",
          "type": "address"
        },
        {
          "internalType": "string",
          "name": "name",
          "type": "string"
        },
        {
          "internalType": "uint256",
          "name": "age",
          "type": "uint256"
        },
        {
          "internalType": "string",
          "name": "gender",
          "type": "string"
        },
        {
          "internalType": "string",
          "name": "district",
          "type": "string"
        }
      ],
      "stateMutability": "view",
      "type": "function",
      "constant": true
    },
    {
      "inputs": [
        {
          "internalType": "uint256",
          "name": "masteradminid",
          "type": "uint256"
        },
        {
          "internalType": "uint256",
          "name": "adminid",
          "type": "uint256"
        }
      ],
      "name": "registerAdmin",
      "outputs": [],
      "stateMutability": "nonpayable",
      "type": "function"
    },
    {
      "inputs": [
        {
          "internalType": "uint256",
          "name": "patientid",
          "type": "uint256"
        },
        {
          "internalType": "string",
          "name": "_name",
          "type": "string"
        },
        {
          "internalType": "uint256",
          "name": "_age",
          "type": "uint256"
        },
        {
          "internalType": "string",
          "name": "_gender",
          "type": "string"
        },
        {
          "internalType": "string",
          "name": "_district",
          "type": "string"
        },
        {
          "internalType": "string",
          "name": "_symptomsDetails",
          "type": "string"
        }
      ],
      "name": "registerPatients",
      "outputs": [],
      "stateMutability": "nonpayable",
      "type": "function"
    },
    {
      "inputs": [
        {
          "internalType": "uint256",
          "name": "adminid",
          "type": "uint256"
        },
        {
          "internalType": "uint256",
          "name": "doctorid",
          "type": "uint256"
        }
      ],
      "name": "registerDoctor",
      "outputs": [],
      "stateMutability": "nonpayable",
      "type": "function"
    },
    {
      "inputs": [
        {
          "internalType": "uint256",
          "name": "adminid",
          "type": "uint256"
        },
        {
          "internalType": "uint256",
          "name": "patientid",
          "type": "uint256"
        },
        {
          "internalType": "enum patientManagement.VaccineStatus",
          "name": "_vaccineStatus",
          "type": "uint8"
        },
        {
          "internalType": "bool",
          "name": "_isDead",
          "type": "bool"
        }
      ],
      "name": "updatePatientData",
      "outputs": [],
      "stateMutability": "nonpayable",
      "type": "function"
    },
    {
      "inputs": [
        {
          "internalType": "uint256",
          "name": "doctorid",
          "type": "uint256"
        }
      ],
      "name": "getAvailableSlots",
      "outputs": [
        {
          "internalType": "string",
          "name": "",
          "type": "string"
        }
      ],
      "stateMutability": "view",
      "type": "function",
      "constant": true
    },
    {
      "inputs": [
        {
          "internalType": "uint256",
          "name": "doctorid",
          "type": "uint256"
        },
        {
          "internalType": "uint256",
          "name": "slotIndex",
          "type": "uint256"
        },
        {
          "internalType": "uint256",
          "name": "patientid",
          "type": "uint256"
        },
        {
          "internalType": "uint256",
          "name": "_charge",
          "type": "uint256"
        }
      ],
      "name": "bookAppointment",
      "outputs": [],
      "stateMutability": "payable",
      "type": "function",
      "payable": true
    },
    {
      "inputs": [
        {
          "internalType": "uint256",
          "name": "doctorid",
          "type": "uint256"
        }
      ],
      "name": "getAppointments",
      "outputs": [
        {
          "internalType": "string",
          "name": "",
          "type": "string"
        }
      ],
      "stateMutability": "view",
      "type": "function",
      "constant": true
    },
    {
      "inputs": [
        {
          "internalType": "uint256",
          "name": "patientid",
          "type": "uint256"
        }
      ],
      "name": "getPatientDetails",
      "outputs": [
        {
          "internalType": "string",
          "name": "",
          "type": "string"
        }
      ],
      "stateMutability": "view",
      "type": "function",
      "constant": true
    }
  ],
  "bytecode": "0x60806040523480156200001157600080fd5b50600160008181527fe90b7bceb6e7df5418fb78d8ee546e97c83a08bbccc01a0644d599ccd2a7c2e080546001600160a01b0319163317905560036020527fa15bc60c955c405d20d9149c709e2460f1c2d9a497496a7f46004d1772c3054c805460ff191683179055429091555b600a8110156200016f57600062000099826102586200018c565b600154620000a89190620001ae565b9050604051806080016040528082815260200182610258620000cb9190620001ae565b815260006020808301829052604090920181905260019052600990527f92e85d02570a8092d09a6e3a57665bc3815a2699a4074001bf1ccabf660f5a3683600a81106200011c576200011c620001ca565b82516004919091029190910190815560208201516001820155604082015160028201805460ff191691151591909117905560609091015160039091015550806200016681620001e0565b9150506200007f565b50620001fc565b634e487b7160e01b600052601160045260246000fd5b6000816000190483118215151615620001a957620001a962000176565b500290565b80820180821115620001c457620001c462000176565b92915050565b634e487b7160e01b600052603260045260246000fd5b600060018201620001f557620001f562000176565b5060010190565b611ff8806200020c6000396000f3fe6080604052600436106101095760003560e01c80639ace38c211610095578063ac0f2f7c11610064578063ac0f2f7c146103a8578063ba44eecf146103c8578063e0ad0afb146103fe578063f03c10db14610411578063ff7f29e21461043157600080fd5b80639ace38c2146102d55780639cb2ba0b14610310578063a87430ba14610356578063ab1ea5cb1461038857600080fd5b8063300c601c116100dc578063300c601c146101d95780633ba51e7c14610206578063478cce5314610254578063524998fe1461027457806393119a83146102a457600080fd5b806307973ccf1461010e5780631b5a89e4146101375780631f6dc437146101775780632f29dda4146101b7575b600080fd5b34801561011a57600080fd5b5061012460005481565b6040519081526020015b60405180910390f35b34801561014357600080fd5b506101576101523660046115dd565b610451565b60408051948552602085019390935291830152606082015260800161012e565b34801561018357600080fd5b506101a76101923660046115ff565b60036020526000908152604090205460ff1681565b604051901515815260200161012e565b3480156101c357600080fd5b506101d76101d2366004611618565b610497565b005b3480156101e557600080fd5b506101f96101f43660046115ff565b6105e8565b60405161012e91906116bb565b34801561021257600080fd5b5061023c6102213660046115ff565b6004602052600090815260409020546001600160a01b031681565b6040516001600160a01b03909116815260200161012e565b34801561026057600080fd5b506101d761026f3660046115dd565b6106ce565b34801561028057600080fd5b506101a761028f3660046115ff565b60056020526000908152604090205460ff1681565b3480156102b057600080fd5b506102c46102bf3660046115ff565b61091a565b60405161012e9594939291906116eb565b3480156102e157600080fd5b506102f56102f03660046115ff565b6109e1565b6040805193845260208401929092529082015260600161012e565b34801561031c57600080fd5b5061033061032b3660046115dd565b610a14565b60408051948552602085019390935290151591830191909152606082015260800161012e565b34801561036257600080fd5b5061037661037136600461174d565b610a54565b60405161012e96959493929190611776565b34801561039457600080fd5b506101d76103a336600461187c565b610c2b565b3480156103b457600080fd5b506101f96103c33660046115ff565b610db7565b3480156103d457600080fd5b5061023c6103e33660046115ff565b6002602052600090815260409020546001600160a01b031681565b6101d761040c36600461193b565b610e9d565b34801561041d57600080fd5b506101f961042c3660046115ff565b61113f565b34801561043d57600080fd5b506101d761044c3660046115dd565b611254565b6008602052816000526040600020818154811061046d57600080fd5b60009182526020909120600490910201805460018201546002830154600390930154919450925084565b60008481526002602052604090205484906001600160a01b031633146104d85760405162461bcd60e51b81526004016104cf9061196d565b60405180910390fd5b60008181526003602052604090205460ff1661052a5760405162461bcd60e51b815260206004820152601160248201527024b73b30b634b21030b236b4b71024a21760791b60448201526064016104cf565b60008481526007602052604090206003810154610100900460ff16156105a25760405162461bcd60e51b815260206004820152602760248201527f43616e6e6f74207570646174652064617461206f66206465636561736564207060448201526630ba34b2b73a1760c91b60648201526084016104cf565b60038101805485919060ff191660018360028111156105c3576105c36116d5565b021790555060030180549215156101000261ff00199093169290921790915550505050565b600081815260076020908152604080832060018101546001600160a01b031684526006909252822081546060939061061f906112f4565b8260020161063084600301546112f4565b60038601546004860190600587019060028901906106509060ff16611474565b60038a0154610100900460ff1661068157604051806040016040528060028152602001614e6f60f01b81525061069e565b6040518060400160405280600381526020016259657360e81b8152505b6040516020016106b5989796959493929190611a79565b60408051601f1981840301815291905295945050505050565b60008281526002602052604090205482906001600160a01b031633146107065760405162461bcd60e51b81526004016104cf9061196d565b60008181526003602052604090205460ff166107585760405162461bcd60e51b815260206004820152601160248201527024b73b30b634b21030b236b4b71024a21760791b60448201526064016104cf565b60008281526005602090815260408083208054600160ff199091168117909155600483528184208054336001600160a01b03199182168117909255835160c0810185528654815280860183815285518088018752888152828701908152606083018990528651808901885289815260808401528651808901885289815260a084015293885260069096529390952083518155935191840180549095166001600160a01b0390921691909117909355915160028201906108179082611bf9565b5060608201516003820155608082015160048201906108369082611bf9565b5060a0820151600582019061084b9082611bf9565b5090505060005b600a81101561091457600061086982610258611ccf565b6001546108769190611cee565b90506040518060800160405280828152602001826102586108979190611cee565b8152600060208083018290526040928301829052878252600990522083600a81106108c4576108c4611d07565b82516004919091029190910190815560208201516001820155604082015160028201805460ff1916911515919091179055606090910151600390910155508061090c81611d1d565b915050610852565b50505050565b60076020526000908152604090208054600182015460028301805492936001600160a01b039092169261094c906119cc565b80601f0160208091040260200160405190810160405280929190818152602001828054610978906119cc565b80156109c55780601f1061099a576101008083540402835291602001916109c5565b820191906000526020600020905b8154815290600101906020018083116109a857829003601f168201915b5050506003909301549192505060ff8082169161010090041685565b600a81815481106109f157600080fd5b600091825260209091206003909102018054600182015460029092015490925083565b600960205281600052604060002081600a8110610a3057600080fd5b60040201805460018201546002830154600390930154919450925060ff9091169084565b60066020526000908152604090208054600182015460028301805492936001600160a01b0390921692610a86906119cc565b80601f0160208091040260200160405190810160405280929190818152602001828054610ab2906119cc565b8015610aff5780601f10610ad457610100808354040283529160200191610aff565b820191906000526020600020905b815481529060010190602001808311610ae257829003601f168201915b505050505090806003015490806004018054610b1a906119cc565b80601f0160208091040260200160405190810160405280929190818152602001828054610b46906119cc565b8015610b935780601f10610b6857610100808354040283529160200191610b93565b820191906000526020600020905b815481529060010190602001808311610b7657829003601f168201915b505050505090806005018054610ba8906119cc565b80601f0160208091040260200160405190810160405280929190818152602001828054610bd4906119cc565b8015610c215780601f10610bf657610100808354040283529160200191610c21565b820191906000526020600020905b815481529060010190602001808311610c0457829003601f168201915b5050505050905086565b600080549080610c3a83611d1d565b90915550506040805160c0810182526000805482523360208084018281528486018b8152606086018b9052608086018a905260a086018990529284526006909152939091208251815592516001840180546001600160a01b0319166001600160a01b03909216919091179055519091906002820190610cb99082611bf9565b506060820151600382015560808201516004820190610cd89082611bf9565b5060a08201516005820190610ced9082611bf9565b50506040805160a08101825288815233602082015290810183905290506060810160008152600060209182018190528881526007825260409081902083518155918301516001830180546001600160a01b0319166001600160a01b039092169190911790558201516002820190610d649082611bf9565b50606082015160038201805460ff19166001836002811115610d8857610d886116d5565b021790555060809190910151600390910180549115156101000261ff0019909216919091179055505050505050565b60608060005b600084815260086020526040902054811015610e96576000848152600860205260408120805483908110610df357610df3611d07565b906000526020600020906004020190506000610e1282600001546112f4565b610e1f83600101546112f4565b610e2c8460020154611544565b610e3985600301546112f4565b604051602001610e4c9493929190611d36565b60405160208183030381529060405290508381604051602001610e70929190611dfd565b604051602081830303815290604052935050508080610e8e90611d1d565b915050610dbd565b5092915050565b6005811015610f045760405162461bcd60e51b815260206004820152602d60248201527f4d696e696d756d2063686172676520666f7220616e206170706f696e746d656e60448201526c3a1034b9901a903ab734ba399760991b60648201526084016104cf565b60008481526005602052604090205460ff16610f575760405162461bcd60e51b815260206004820152601260248201527124b73b30b634b2103237b1ba37b91024a21760711b60448201526064016104cf565b600a8310610f9d5760405162461bcd60e51b815260206004820152601360248201527224b73b30b634b21039b637ba1034b73232bc1760691b60448201526064016104cf565b600084815260096020526040812084600a8110610fbc57610fbc611d07565b6004020190508060020160009054906101000a900460ff16156110215760405162461bcd60e51b815260206004820152601760248201527f536c6f7420697320616c726561647920626f6f6b65642e00000000000000000060448201526064016104cf565b6002808201805460ff191660019081179091556003808401869055600088815260086020908152604080832081516080810183528c81528084018b8152895482850190815260608084019c8d528454808b018655948852868820935160049095029093019384559051838901555197820197909755975197840197909755865194850187529884529783019586529254938201938452600a805491820181559096525194027fc65a7bb8d6351c1cf70c95a316cc6a92839c986682d98bc35f958f4883f9d2a881019490945590517fc65a7bb8d6351c1cf70c95a316cc6a92839c986682d98bc35f958f4883f9d2a9840155517fc65a7bb8d6351c1cf70c95a316cc6a92839c986682d98bc35f958f4883f9d2aa9092019190915550565b60608060005b600a811015610e9657600084815260096020526040812082600a811061116d5761116d611d07565b6004020190506000611188611183846001611cee565b6112f4565b825461119390611544565b6111a08460010154611544565b600285015460ff166111cc57604051806040016040528060028152602001614e6f60f01b8152506111e9565b6040518060400160405280600381526020016259657360e81b8152505b6111f686600301546112f4565b60405160200161120a959493929190611e2c565b6040516020818303038152906040529050838160405160200161122e929190611dfd565b60405160208183030381529060405293505050808061124c90611d1d565b915050611145565b816301450836146112be5760405162461bcd60e51b815260206004820152602e60248201527f4f6e6c7920746865206d61737465722061646d696e2063616e2072656769737460448201526d32b9103732bb9030b236b4b7399760911b60648201526084016104cf565b6000908152600360209081526040808320805460ff191660011790556002909152902080546001600160a01b0319163317905550565b60608160000361131b5750506040805180820190915260018152600360fc1b602082015290565b60408051600a8082528183019092526000908260208201818036833701905050905060005b84156113aa576000611353600a87611f18565b9050611360600a87611f2c565b955061136d816030611cee565b60f81b838361137b81611d1d565b94508151811061138d5761138d611d07565b60200101906001600160f81b031916908160001a90535050611340565b60008167ffffffffffffffff8111156113c5576113c56117d9565b6040519080825280601f01601f1916602001820160405280156113ef576020820181803683370190505b50905060005b8281101561146a57838161140a600186611f40565b6114149190611f40565b8151811061142457611424611d07565b602001015160f81c60f81b82828151811061144157611441611d07565b60200101906001600160f81b031916908160001a9053508061146281611d1d565b9150506113f5565b5095945050505050565b6060600082600281111561148a5761148a6116d5565b036114b857505060408051808201909152600d81526c139bdd159858d8da5b985d1959609a1b602082015290565b60018260028111156114cc576114cc6116d5565b036114f45750506040805180820190915260078152664f6e65446f736560c81b602082015290565b6002826002811115611508576115086116d5565b0361153057505060408051808201909152600781526654776f446f736560c81b602082015290565b505060408051602081019091526000815290565b606060006115556201518084611f2c565b905060006018603c6115678187611f2c565b6115719190611f2c565b61157b9190611f18565b90506000603c61158b8187611f2c565b6115959190611f18565b90506115a0836112f4565b6115a9836112f4565b6115b2836112f4565b6040516020016115c493929190611f53565b6040516020818303038152906040529350505050919050565b600080604083850312156115f057600080fd5b50508035926020909101359150565b60006020828403121561161157600080fd5b5035919050565b6000806000806080858703121561162e57600080fd5b843593506020850135925060408501356003811061164b57600080fd5b91506060850135801515811461166057600080fd5b939692955090935050565b60005b8381101561168657818101518382015260200161166e565b50506000910152565b600081518084526116a781602086016020860161166b565b601f01601f19169290920160200192915050565b6020815260006116ce602083018461168f565b9392505050565b634e487b7160e01b600052602160045260246000fd5b8581526001600160a01b038516602082015260a0604082018190526000906117159083018661168f565b90506003841061173557634e487b7160e01b600052602160045260246000fd5b83606083015282151560808301529695505050505050565b60006020828403121561175f57600080fd5b81356001600160a01b03811681146116ce57600080fd5b8681526001600160a01b038616602082015260c0604082018190526000906117a09083018761168f565b85606084015282810360808401526117b8818661168f565b905082810360a08401526117cc818561168f565b9998505050505050505050565b634e487b7160e01b600052604160045260246000fd5b600082601f83011261180057600080fd5b813567ffffffffffffffff8082111561181b5761181b6117d9565b604051601f8301601f19908116603f01168101908282118183101715611843576118436117d9565b8160405283815286602085880101111561185c57600080fd5b836020870160208301376000602085830101528094505050505092915050565b60008060008060008060c0878903121561189557600080fd5b86359550602087013567ffffffffffffffff808211156118b457600080fd5b6118c08a838b016117ef565b96506040890135955060608901359150808211156118dd57600080fd5b6118e98a838b016117ef565b945060808901359150808211156118ff57600080fd5b61190b8a838b016117ef565b935060a089013591508082111561192157600080fd5b5061192e89828a016117ef565b9150509295509295509295565b6000806000806080858703121561195157600080fd5b5050823594602084013594506040840135936060013592509050565b60208082526023908201527f4f6e6c792061646d696e2063616e20706572666f726d2074686973206163746960408201526237b71760e91b606082015260800190565b600081516119c281856020860161166b565b9290920192915050565b600181811c908216806119e057607f821691505b602082108103611a0057634e487b7160e01b600052602260045260246000fd5b50919050565b60008154611a13816119cc565b60018281168015611a2b5760018114611a4057611a6f565b60ff1984168752821515830287019450611a6f565b8560005260208060002060005b85811015611a665781548a820152908401908201611a4d565b50505082870194505b5050505092915050565b63024a21d160e51b815260008951611a98816004850160208e0161166b565b67016102730b6b29d160c51b600491840191820152611aba600c82018b611a06565b9050660161020b3b29d160cd1b81528851611adc816007840160208d0161166b565b690161023b2b73232b91d160b51b60079290910191820152611b016011820189611a06565b90506b016102234b9ba3934b1ba1d160a51b8152611b22600c820188611a06565b90506b0161029bcb6b83a37b6b99d160a51b8152611b43600c820187611a06565b905071016102b30b1b1b4b7329029ba30ba3ab99d160751b81528451611b7081601284016020890161166b565b611b9a611b946012838501016b016102232b1b2b0b9b2b21d160a51b8152600c0190565b866119b0565b9c9b505050505050505050505050565b601f821115611bf457600081815260208120601f850160051c81016020861015611bd15750805b601f850160051c820191505b81811015611bf057828155600101611bdd565b5050505b505050565b815167ffffffffffffffff811115611c1357611c136117d9565b611c2781611c2184546119cc565b84611baa565b602080601f831160018114611c5c5760008415611c445750858301515b600019600386901b1c1916600185901b178555611bf0565b600085815260208120601f198616915b82811015611c8b57888601518255948401946001909101908401611c6c565b5085821015611ca95787850151600019600388901b60f8161c191681555b5050505050600190811b01905550565b634e487b7160e01b600052601160045260246000fd5b6000816000190483118215151615611ce957611ce9611cb9565b500290565b80820180821115611d0157611d01611cb9565b92915050565b634e487b7160e01b600052603260045260246000fd5b600060018201611d2f57611d2f611cb9565b5060010190565b6902237b1ba37b924a21d160b51b815260008551611d5b81600a850160208a0161166b565b6c016102830ba34b2b73a24a21d1609d1b600a918401918201528551611d88816017840160208a0161166b565b6b016102230ba32aa34b6b29d160a51b601792909101918201528451611db581602384016020890161166b565b690161021b430b933b29d160b51b602392909101918201528351611de081602d84016020880161166b565b6101d960f51b602d9290910191820152602f019695505050505050565b60008351611e0f81846020880161166b565b835190830190611e2381836020880161166b565b01949350505050565b64029b637ba160dd1b815260008651611e4c816005850160208b0161166b565b6101d160f51b6005918401918201528651611e6e816007840160208b0161166b565b6201016960ed1b600792909101918201528551611e9281600a840160208a0161166b565b69016102137b7b5b2b21d160b51b600a92909101918201528451611ebd81601484016020890161166b565b6c016102830ba34b2b73a24a21d1609d1b601492909101918201528351611eeb81602184016020880161166b565b6117cc6021828401016101d960f51b815260020190565b634e487b7160e01b600052601260045260246000fd5b600082611f2757611f27611f02565b500690565b600082611f3b57611f3b611f02565b500490565b81810381811115611d0157611d01611cb9565b6302230bc960e51b815260008451611f7281600485016020890161166b565b600160fd1b6004918401918201528451611f9381600584016020890161166b565b601d60f91b600592909101918201528351611fb581600684016020880161166b565b016006019594505050505056fea26469706673582212204878ccace1a8369cf1ad99c42f7cfc34c36d539075976321b19f79f91433e8a364736f6c63430008100033",
  "immutableReferences": {},
  "source": "// SPDX-License-Identifier: MIT\npragma solidity ^0.8.2 <0.9.0;\n\n\ncontract patientManagement {\n    enum VaccineStatus { NotVaccinated, OneDose, TwoDose }\n\n    struct User {\n        uint id;\n        address userAddress;\n        string name;\n        uint age;\n        string gender;\n        string district;\n    }\n    \n    struct Patient {\n        uint id;\n        address userAddress;\n        string symptomsDetails;\n        VaccineStatus vaccineStatus;\n        bool isDead;\n    }\n    \n    struct Appointment {\n        uint doctorid;\n        uint patientid;\n        uint timestamp;\n        uint charge;\n    }\n\n    struct Transaction {\n        uint doctorid;\n        uint patientid;\n        uint timestamp;\n    }\n\n    struct AppointmentDetails {\n        uint doctorid;\n        uint patientid;\n        string dateTime; // need to make readable date and time\n        uint charge;\n    }\n    \n    struct AppointmentSlot {\n        uint startTimestamp;\n        uint endTimestamp;\n        bool isBooked;\n        uint patientid;\n    }\n\n    uint public userCount;\n    uint private lastAppointmentTime;\n\n    mapping(uint => address) public adminAddresses;\n    mapping(uint => bool) public isAdmin;\n    mapping(uint => address) public doctorAddresses;\n    mapping(uint => bool) public isDoctor;\n    mapping(address => User) public users;\n    mapping(uint => Patient) public patients;\n    mapping(uint => Appointment[]) public doctorAppointments;\n    mapping(uint => AppointmentSlot[10]) public appointmentSlots;  // 10 slots for each doctor\n    Transaction[] public transactions;\n\n    constructor() {\n        adminAddresses[1] = msg.sender;\n        isAdmin[1] = true;\n        lastAppointmentTime = block.timestamp; // Initialize last appointment time to current block timestamp\n\n        // Initialize appointment slots\n        for (uint i = 0; i < 10; i++) {\n            uint startTimestamp = lastAppointmentTime + (i * 10 minutes);\n            appointmentSlots[1][i] = AppointmentSlot(startTimestamp, startTimestamp + 10 minutes, false, 0);\n        }\n    }\n\n    modifier onlyAdmin(uint adminid) {\n        require(adminAddresses[adminid] == msg.sender, \"Only admin can perform this action.\");\n        require(isAdmin[adminid], \"Invalid admin ID.\");\n        _;\n    }\n\n    function registerAdmin(uint masteradminid, uint adminid) public {\n        require(masteradminid == 21301302, \"Only the master admin can register new admins.\");\n        isAdmin[adminid] = true;\n        adminAddresses[adminid] = msg.sender;\n    }\n    \n    function registerPatients(uint patientid, string memory _name, uint _age, string memory _gender, string memory _district, string memory _symptomsDetails) public {\n        userCount++;\n        users[msg.sender] = User(userCount, msg.sender, _name, _age, _gender, _district);\n        patients[patientid] = Patient(patientid, msg.sender, _symptomsDetails, VaccineStatus.NotVaccinated, false);\n    }\n\n    function registerDoctor(uint adminid, uint doctorid) public onlyAdmin(adminid) {\n        isDoctor[doctorid] = true;\n        doctorAddresses[doctorid] = msg.sender;\n        users[msg.sender] = User(userCount, msg.sender, \"\", 0, \"\", \"\");\n        \n        // 10 for each\n        for (uint i = 0; i < 10; i++) {\n            uint startTimestamp = lastAppointmentTime + (i * 10 minutes);\n            appointmentSlots[doctorid][i] = AppointmentSlot(startTimestamp, startTimestamp + 10 minutes, false, 0);\n        }\n    }\n\n    function updatePatientData(uint adminid, uint patientid, VaccineStatus _vaccineStatus, bool _isDead) public onlyAdmin(adminid) {\n        Patient storage patient = patients[patientid];\n        require(!patient.isDead, \"Cannot update data of deceased patient.\");\n        patient.vaccineStatus = _vaccineStatus;\n        patient.isDead = _isDead;\n    }\n\n    function getVaccineStatusString(VaccineStatus _vaccineStatus) internal pure returns (string memory) {\n        if (_vaccineStatus == VaccineStatus.NotVaccinated) return \"NotVaccinated\";\n        if (_vaccineStatus == VaccineStatus.OneDose) return \"OneDose\";\n        if (_vaccineStatus == VaccineStatus.TwoDose) return \"TwoDose\";\n        return \"\";\n    }\n\n    function getReadableDateTime(uint timestamp) internal pure returns (string memory) {\n        uint day = timestamp / (60 * 60 * 24);\n        uint hour = (timestamp / 60 / 60) % 24;\n        uint minute = (timestamp / 60) % 60;\n        return string(abi.encodePacked(\"Day \", uintToString(day), \" \", uintToString(hour), \":\", uintToString(minute)));\n    }\n\n    function uintToString(uint v) internal pure returns (string memory) {\n        if (v == 0) {\n            return \"0\";\n        }\n        uint maxLength = 10;\n        bytes memory reversed = new bytes(maxLength);\n        uint len = 0;\n        while (v != 0) {\n            uint remainder = v % 10;\n            v = v / 10;\n            reversed[len++] = bytes1(uint8(48 + remainder));\n        }\n        bytes memory s = new bytes(len);\n        for (uint i = 0; i < len; i++) {\n            s[i] = reversed[len - 1 - i];\n        }\n        return string(s);\n    }\n\n    function getAvailableSlots(uint doctorid) public view returns (string memory) {\n        string memory slots;\n        for (uint i = 0; i < 10; i++) {\n            AppointmentSlot storage slot = appointmentSlots[doctorid][i];\n            string memory slotDetails = string(abi.encodePacked(\n                \"Slot \", uintToString(i + 1), \": \",\n                getReadableDateTime(slot.startTimestamp), \" - \",\n                getReadableDateTime(slot.endTimestamp), \", Booked: \",\n                slot.isBooked ? \"Yes\" : \"No\", \", PatientID: \",\n                uintToString(slot.patientid), \"; \"\n            ));\n            slots = string(abi.encodePacked(slots, slotDetails));\n        }\n        return slots;\n    }\n\n    function bookAppointment(uint doctorid, uint slotIndex, uint patientid, uint _charge) public payable {\n        require(_charge >= 5, \"Minimum charge for an appointment is 5 units.\");\n        require(isDoctor[doctorid], \"Invalid doctor ID.\");\n        require(slotIndex < 10, \"Invalid slot index.\");\n\n        AppointmentSlot storage slot = appointmentSlots[doctorid][slotIndex];\n        require(!slot.isBooked, \"Slot is already booked.\");\n\n        slot.isBooked = true;\n        slot.patientid = patientid;\n\n        doctorAppointments[doctorid].push(Appointment(doctorid, patientid, slot.startTimestamp, _charge));\n\n        transactions.push(Transaction(doctorid, patientid, slot.startTimestamp));\n    }\n\n    function getAppointments(uint doctorid) public view returns (string memory) {\n        string memory appointments;\n        for (uint i = 0; i < doctorAppointments[doctorid].length; i++) {\n            Appointment storage appointment = doctorAppointments[doctorid][i];\n            string memory appointmentDetails = string(abi.encodePacked(\n                \"DoctorID: \", uintToString(appointment.doctorid), \n                \", PatientID: \", uintToString(appointment.patientid), \n                \", DateTime: \", getReadableDateTime(appointment.timestamp), \n                \", Charge: \", uintToString(appointment.charge), \"; \"\n            ));\n            appointments = string(abi.encodePacked(appointments, appointmentDetails));\n        }\n        return appointments;\n    }\n\n    function getPatientDetails(uint patientid) public view returns (string memory) {\n        Patient storage patient = patients[patientid];\n        User storage user = users[patient.userAddress];\n        string memory patientDetails = string(abi.encodePacked(\n            \"ID: \", uintToString(patient.id),\n            \", Name: \", user.name,\n            \", Age: \", uintToString(user.age),\n            \", Gender: \", user.gender,\n            \", District: \", user.district,\n            \", Symptoms: \", patient.symptomsDetails,\n            \", Vaccine Status: \", getVaccineStatusString(patient.vaccineStatus),\n            \", Deceased: \", patient.isDead ? \"Yes\" : \"No\"\n        ));\n        return patientDetails;\n    }\n}\n",
  "sourcePath": "/Users/eamin/Documents/BRACU /FALL 2024/446 DApp lab/election/contracts/patientManagement.sol",
  "compiler": {
    "name": "solc",
    "version": "0.8.16+commit.07a7930e.Emscripten.clang"
  },
  "schemaVersion": "3.4.16",
  "updatedAt": "2024-12-30T17:33:10.178Z",
  "networkType": "ethereum",
  "devdoc": {
    "kind": "dev",
    "methods": {},
    "version": 1
  },
  "userdoc": {
    "kind": "user",
    "methods": {},
    "version": 1
  }
}